{
  "_format": "hh-sol-artifact-1",
  "contractName": "Mintly",
  "sourceName": "contracts/Mintly.sol",
  "abi": [
    {
      "inputs": [],
      "stateMutability": "nonpayable",
      "type": "constructor"
    },
    {
      "anonymous": false,
      "inputs": [
        {
          "indexed": true,
          "internalType": "address",
          "name": "account",
          "type": "address"
        },
        {
          "indexed": true,
          "internalType": "address",
          "name": "operator",
          "type": "address"
        },
        {
          "indexed": false,
          "internalType": "bool",
          "name": "approved",
          "type": "bool"
        }
      ],
      "name": "ApprovalForAll",
      "type": "event"
    },
    {
      "anonymous": false,
      "inputs": [
        {
          "indexed": true,
          "internalType": "uint256",
          "name": "tokenId",
          "type": "uint256"
        },
        {
          "indexed": false,
          "internalType": "address",
          "name": "owner",
          "type": "address"
        },
        {
          "indexed": false,
          "internalType": "address",
          "name": "creator",
          "type": "address"
        },
        {
          "indexed": false,
          "internalType": "uint256",
          "name": "supply",
          "type": "uint256"
        },
        {
          "indexed": false,
          "internalType": "uint256",
          "name": "supplyLeft",
          "type": "uint256"
        },
        {
          "indexed": false,
          "internalType": "uint256",
          "name": "price",
          "type": "uint256"
        },
        {
          "indexed": true,
          "internalType": "string",
          "name": "category",
          "type": "string"
        }
      ],
      "name": "NftCreated",
      "type": "event"
    },
    {
      "anonymous": false,
      "inputs": [
        {
          "indexed": true,
          "internalType": "uint256",
          "name": "tokenId",
          "type": "uint256"
        },
        {
          "indexed": false,
          "internalType": "address",
          "name": "owner",
          "type": "address"
        },
        {
          "indexed": false,
          "internalType": "address",
          "name": "creator",
          "type": "address"
        },
        {
          "indexed": false,
          "internalType": "uint256",
          "name": "supplyLeft",
          "type": "uint256"
        },
        {
          "indexed": false,
          "internalType": "uint256",
          "name": "price",
          "type": "uint256"
        },
        {
          "indexed": true,
          "internalType": "string",
          "name": "category",
          "type": "string"
        }
      ],
      "name": "NftPurchased",
      "type": "event"
    },
    {
      "anonymous": false,
      "inputs": [
        {
          "indexed": true,
          "internalType": "address",
          "name": "operator",
          "type": "address"
        },
        {
          "indexed": true,
          "internalType": "address",
          "name": "from",
          "type": "address"
        },
        {
          "indexed": true,
          "internalType": "address",
          "name": "to",
          "type": "address"
        },
        {
          "indexed": false,
          "internalType": "uint256[]",
          "name": "ids",
          "type": "uint256[]"
        },
        {
          "indexed": false,
          "internalType": "uint256[]",
          "name": "values",
          "type": "uint256[]"
        }
      ],
      "name": "TransferBatch",
      "type": "event"
    },
    {
      "anonymous": false,
      "inputs": [
        {
          "indexed": true,
          "internalType": "address",
          "name": "operator",
          "type": "address"
        },
        {
          "indexed": true,
          "internalType": "address",
          "name": "from",
          "type": "address"
        },
        {
          "indexed": true,
          "internalType": "address",
          "name": "to",
          "type": "address"
        },
        {
          "indexed": false,
          "internalType": "uint256",
          "name": "id",
          "type": "uint256"
        },
        {
          "indexed": false,
          "internalType": "uint256",
          "name": "value",
          "type": "uint256"
        }
      ],
      "name": "TransferSingle",
      "type": "event"
    },
    {
      "anonymous": false,
      "inputs": [
        {
          "indexed": false,
          "internalType": "string",
          "name": "value",
          "type": "string"
        },
        {
          "indexed": true,
          "internalType": "uint256",
          "name": "id",
          "type": "uint256"
        }
      ],
      "name": "URI",
      "type": "event"
    },
    {
      "inputs": [
        {
          "internalType": "address",
          "name": "account",
          "type": "address"
        },
        {
          "internalType": "uint256",
          "name": "id",
          "type": "uint256"
        }
      ],
      "name": "balanceOf",
      "outputs": [
        {
          "internalType": "uint256",
          "name": "",
          "type": "uint256"
        }
      ],
      "stateMutability": "view",
      "type": "function"
    },
    {
      "inputs": [
        {
          "internalType": "address[]",
          "name": "accounts",
          "type": "address[]"
        },
        {
          "internalType": "uint256[]",
          "name": "ids",
          "type": "uint256[]"
        }
      ],
      "name": "balanceOfBatch",
      "outputs": [
        {
          "internalType": "uint256[]",
          "name": "",
          "type": "uint256[]"
        }
      ],
      "stateMutability": "view",
      "type": "function"
    },
    {
      "inputs": [
        {
          "internalType": "uint256",
          "name": "_tokenId",
          "type": "uint256"
        }
      ],
      "name": "buyNft",
      "outputs": [],
      "stateMutability": "payable",
      "type": "function"
    },
    {
      "inputs": [
        {
          "internalType": "string",
          "name": "_tokenUri",
          "type": "string"
        },
        {
          "internalType": "uint256",
          "name": "_supply",
          "type": "uint256"
        },
        {
          "internalType": "uint256",
          "name": "_price",
          "type": "uint256"
        },
        {
          "internalType": "string",
          "name": "_category",
          "type": "string"
        }
      ],
      "name": "createToken",
      "outputs": [],
      "stateMutability": "payable",
      "type": "function"
    },
    {
      "inputs": [
        {
          "internalType": "uint256",
          "name": "_TokenId",
          "type": "uint256"
        }
      ],
      "name": "getTotalPrice",
      "outputs": [
        {
          "internalType": "uint256",
          "name": "",
          "type": "uint256"
        }
      ],
      "stateMutability": "view",
      "type": "function"
    },
    {
      "inputs": [
        {
          "internalType": "uint256",
          "name": "",
          "type": "uint256"
        }
      ],
      "name": "idToNft",
      "outputs": [
        {
          "internalType": "uint256",
          "name": "tokenId",
          "type": "uint256"
        },
        {
          "internalType": "address payable",
          "name": "owner",
          "type": "address"
        },
        {
          "internalType": "address payable",
          "name": "creator",
          "type": "address"
        },
        {
          "internalType": "uint256",
          "name": "totalSupply",
          "type": "uint256"
        },
        {
          "internalType": "uint256",
          "name": "supplyLeft",
          "type": "uint256"
        },
        {
          "internalType": "uint256",
          "name": "price",
          "type": "uint256"
        },
        {
          "internalType": "string",
          "name": "category",
          "type": "string"
        }
      ],
      "stateMutability": "view",
      "type": "function"
    },
    {
      "inputs": [
        {
          "internalType": "address",
          "name": "account",
          "type": "address"
        },
        {
          "internalType": "address",
          "name": "operator",
          "type": "address"
        }
      ],
      "name": "isApprovedForAll",
      "outputs": [
        {
          "internalType": "bool",
          "name": "",
          "type": "bool"
        }
      ],
      "stateMutability": "view",
      "type": "function"
    },
    {
      "inputs": [],
      "name": "myListings",
      "outputs": [
        {
          "components": [
            {
              "internalType": "uint256",
              "name": "tokenId",
              "type": "uint256"
            },
            {
              "internalType": "address payable",
              "name": "owner",
              "type": "address"
            },
            {
              "internalType": "address payable",
              "name": "creator",
              "type": "address"
            },
            {
              "internalType": "uint256",
              "name": "totalSupply",
              "type": "uint256"
            },
            {
              "internalType": "uint256",
              "name": "supplyLeft",
              "type": "uint256"
            },
            {
              "internalType": "uint256",
              "name": "price",
              "type": "uint256"
            },
            {
              "internalType": "string",
              "name": "category",
              "type": "string"
            }
          ],
          "internalType": "struct Mintly.nft[]",
          "name": "",
          "type": "tuple[]"
        }
      ],
      "stateMutability": "view",
      "type": "function"
    },
    {
      "inputs": [],
      "name": "myPurchase",
      "outputs": [
        {
          "components": [
            {
              "internalType": "uint256",
              "name": "tokenId",
              "type": "uint256"
            },
            {
              "internalType": "address payable",
              "name": "owner",
              "type": "address"
            },
            {
              "internalType": "address payable",
              "name": "creator",
              "type": "address"
            },
            {
              "internalType": "uint256",
              "name": "totalSupply",
              "type": "uint256"
            },
            {
              "internalType": "uint256",
              "name": "supplyLeft",
              "type": "uint256"
            },
            {
              "internalType": "uint256",
              "name": "price",
              "type": "uint256"
            },
            {
              "internalType": "string",
              "name": "category",
              "type": "string"
            }
          ],
          "internalType": "struct Mintly.nft[]",
          "name": "",
          "type": "tuple[]"
        }
      ],
      "stateMutability": "view",
      "type": "function"
    },
    {
      "inputs": [
        {
          "internalType": "address",
          "name": "",
          "type": "address"
        },
        {
          "internalType": "address",
          "name": "",
          "type": "address"
        },
        {
          "internalType": "uint256[]",
          "name": "",
          "type": "uint256[]"
        },
        {
          "internalType": "uint256[]",
          "name": "",
          "type": "uint256[]"
        },
        {
          "internalType": "bytes",
          "name": "",
          "type": "bytes"
        }
      ],
      "name": "onERC1155BatchReceived",
      "outputs": [
        {
          "internalType": "bytes4",
          "name": "",
          "type": "bytes4"
        }
      ],
      "stateMutability": "nonpayable",
      "type": "function"
    },
    {
      "inputs": [
        {
          "internalType": "address",
          "name": "",
          "type": "address"
        },
        {
          "internalType": "address",
          "name": "",
          "type": "address"
        },
        {
          "internalType": "uint256",
          "name": "",
          "type": "uint256"
        },
        {
          "internalType": "uint256",
          "name": "",
          "type": "uint256"
        },
        {
          "internalType": "bytes",
          "name": "",
          "type": "bytes"
        }
      ],
      "name": "onERC1155Received",
      "outputs": [
        {
          "internalType": "bytes4",
          "name": "",
          "type": "bytes4"
        }
      ],
      "stateMutability": "nonpayable",
      "type": "function"
    },
    {
      "inputs": [
        {
          "internalType": "address",
          "name": "from",
          "type": "address"
        },
        {
          "internalType": "address",
          "name": "to",
          "type": "address"
        },
        {
          "internalType": "uint256[]",
          "name": "ids",
          "type": "uint256[]"
        },
        {
          "internalType": "uint256[]",
          "name": "amounts",
          "type": "uint256[]"
        },
        {
          "internalType": "bytes",
          "name": "data",
          "type": "bytes"
        }
      ],
      "name": "safeBatchTransferFrom",
      "outputs": [],
      "stateMutability": "nonpayable",
      "type": "function"
    },
    {
      "inputs": [
        {
          "internalType": "address",
          "name": "from",
          "type": "address"
        },
        {
          "internalType": "address",
          "name": "to",
          "type": "address"
        },
        {
          "internalType": "uint256",
          "name": "id",
          "type": "uint256"
        },
        {
          "internalType": "uint256",
          "name": "amount",
          "type": "uint256"
        },
        {
          "internalType": "bytes",
          "name": "data",
          "type": "bytes"
        }
      ],
      "name": "safeTransferFrom",
      "outputs": [],
      "stateMutability": "nonpayable",
      "type": "function"
    },
    {
      "inputs": [
        {
          "internalType": "address",
          "name": "operator",
          "type": "address"
        },
        {
          "internalType": "bool",
          "name": "approved",
          "type": "bool"
        }
      ],
      "name": "setApprovalForAll",
      "outputs": [],
      "stateMutability": "nonpayable",
      "type": "function"
    },
    {
      "inputs": [
        {
          "internalType": "bytes4",
          "name": "interfaceId",
          "type": "bytes4"
        }
      ],
      "name": "supportsInterface",
      "outputs": [
        {
          "internalType": "bool",
          "name": "",
          "type": "bool"
        }
      ],
      "stateMutability": "view",
      "type": "function"
    },
    {
      "inputs": [],
      "name": "unsoldItems",
      "outputs": [
        {
          "components": [
            {
              "internalType": "uint256",
              "name": "tokenId",
              "type": "uint256"
            },
            {
              "internalType": "address payable",
              "name": "owner",
              "type": "address"
            },
            {
              "internalType": "address payable",
              "name": "creator",
              "type": "address"
            },
            {
              "internalType": "uint256",
              "name": "totalSupply",
              "type": "uint256"
            },
            {
              "internalType": "uint256",
              "name": "supplyLeft",
              "type": "uint256"
            },
            {
              "internalType": "uint256",
              "name": "price",
              "type": "uint256"
            },
            {
              "internalType": "string",
              "name": "category",
              "type": "string"
            }
          ],
          "internalType": "struct Mintly.nft[]",
          "name": "",
          "type": "tuple[]"
        }
      ],
      "stateMutability": "view",
      "type": "function"
    },
    {
      "inputs": [
        {
          "internalType": "uint256",
          "name": "tokenId",
          "type": "uint256"
        }
      ],
      "name": "uri",
      "outputs": [
        {
          "internalType": "string",
          "name": "",
          "type": "string"
        }
      ],
      "stateMutability": "view",
      "type": "function"
    }
  ],
  "bytecode": "0x608060405260405180602001604052806000815250600390816200002491906200032b565b503480156200003257600080fd5b506040518060200160405280600081525062000054816200009c60201b60201c565b5033600560006101000a81548173ffffffffffffffffffffffffffffffffffffffff021916908373ffffffffffffffffffffffffffffffffffffffff16021790555062000412565b8060029081620000ad91906200032b565b5050565b600081519050919050565b7f4e487b7100000000000000000000000000000000000000000000000000000000600052604160045260246000fd5b7f4e487b7100000000000000000000000000000000000000000000000000000000600052602260045260246000fd5b600060028204905060018216806200013357607f821691505b602082108103620001495762000148620000eb565b5b50919050565b60008190508160005260206000209050919050565b60006020601f8301049050919050565b600082821b905092915050565b600060088302620001b37fffffffffffffffffffffffffffffffffffffffffffffffffffffffffffffffff8262000174565b620001bf868362000174565b95508019841693508086168417925050509392505050565b6000819050919050565b6000819050919050565b60006200020c620002066200020084620001d7565b620001e1565b620001d7565b9050919050565b6000819050919050565b6200022883620001eb565b62000240620002378262000213565b84845462000181565b825550505050565b600090565b6200025762000248565b620002648184846200021d565b505050565b5b818110156200028c57620002806000826200024d565b6001810190506200026a565b5050565b601f821115620002db57620002a5816200014f565b620002b08462000164565b81016020851015620002c0578190505b620002d8620002cf8562000164565b83018262000269565b50505b505050565b600082821c905092915050565b60006200030060001984600802620002e0565b1980831691505092915050565b60006200031b8383620002ed565b9150826002028217905092915050565b6200033682620000b1565b67ffffffffffffffff811115620003525762000351620000bc565b5b6200035e82546200011a565b6200036b82828562000290565b600060209050601f831160018114620003a357600084156200038e578287015190505b6200039a85826200030d565b8655506200040a565b601f198416620003b3866200014f565b60005b82811015620003dd57848901518255600182019150602085019450602081019050620003b6565b86831015620003fd5784890151620003f9601f891682620002ed565b8355505b6001600288020188555050505b505050505050565b6147bd80620004226000396000f3fe6080604052600436106100fd5760003560e01c80636efbcd8611610095578063ca7dd37511610064578063ca7dd37514610356578063d5c7567214610393578063e985e9c5146103be578063f23a6e61146103fb578063f242432a14610438576100fd565b80636efbcd86146102a9578063a22cb465146102d4578063bc197c81146102fd578063be0f552a1461033a576100fd565b80632eb2c2d6116100d15780632eb2c2d6146101d55780633c2ee3f8146101fe578063483afb2d146102295780634e1273f41461026c576100fd565b8062fdd58e1461010257806301ffc9a71461013f5780630e89341c1461017c578063243adbdd146101b9575b600080fd5b34801561010e57600080fd5b5061012960048036038101906101249190612ab9565b610461565b6040516101369190612b08565b60405180910390f35b34801561014b57600080fd5b5061016660048036038101906101619190612b7b565b610529565b6040516101739190612bc3565b60405180910390f35b34801561018857600080fd5b506101a3600480360381019061019e9190612bde565b61053b565b6040516101b09190612c9b565b60405180910390f35b6101d360048036038101906101ce9190612bde565b610620565b005b3480156101e157600080fd5b506101fc60048036038101906101f79190612eba565b6109a3565b005b34801561020a57600080fd5b50610213610a44565b6040516102209190613161565b60405180910390f35b34801561023557600080fd5b50610250600480360381019061024b9190612bde565b610cfc565b6040516102639796959493929190613192565b60405180910390f35b34801561027857600080fd5b50610293600480360381019061028e91906132cb565b610e06565b6040516102a091906133f2565b60405180910390f35b3480156102b557600080fd5b506102be610f1f565b6040516102cb9190613161565b60405180910390f35b3480156102e057600080fd5b506102fb60048036038101906102f69190613440565b61126d565b005b34801561030957600080fd5b50610324600480360381019061031f9190612eba565b611283565b604051610331919061348f565b60405180910390f35b610354600480360381019061034f919061354b565b611298565b005b34801561036257600080fd5b5061037d60048036038101906103789190612bde565b6114d2565b60405161038a9190612b08565b60405180910390f35b34801561039f57600080fd5b506103a86114f2565b6040516103b59190613161565b60405180910390f35b3480156103ca57600080fd5b506103e560048036038101906103e091906135ea565b611840565b6040516103f29190612bc3565b60405180910390f35b34801561040757600080fd5b50610422600480360381019061041d919061362a565b6118d4565b60405161042f919061348f565b60405180910390f35b34801561044457600080fd5b5061045f600480360381019061045a919061362a565b6118e9565b005b60008073ffffffffffffffffffffffffffffffffffffffff168373ffffffffffffffffffffffffffffffffffffffff16036104d1576040517f08c379a00000000000000000000000000000000000000000000000000000000081526004016104c890613733565b60405180910390fd5b60008083815260200190815260200160002060008473ffffffffffffffffffffffffffffffffffffffff1673ffffffffffffffffffffffffffffffffffffffff16815260200190815260200160002054905092915050565b60006105348261198a565b9050919050565b6060600060046000848152602001908152602001600020805461055d90613782565b80601f016020809104026020016040519081016040528092919081815260200182805461058990613782565b80156105d65780601f106105ab576101008083540402835291602001916105d6565b820191906000526020600020905b8154815290600101906020018083116105b957829003601f168201915b5050505050905060008151116105f4576105ef83611a04565b610618565b600381604051602001610608929190613887565b6040516020818303038152906040525b915050919050565b600061062b826114d2565b90506000606460028361063e91906138da565b610648919061394b565b905060008183610658919061397c565b9050600084118015610673575061066f6006611a98565b8411155b6106b2576040517f08c379a00000000000000000000000000000000000000000000000000000000081526004016106a9906139fc565b60405180910390fd5b8234146106f4576040517f08c379a00000000000000000000000000000000000000000000000000000000081526004016106eb90613a68565b60405180910390fd5b60016007600086815260200190815260200160002060040154101561074e576040517f08c379a000000000000000000000000000000000000000000000000000000000815260040161074590613ad4565b60405180910390fd5b336007600086815260200190815260200160002060010160006101000a81548173ffffffffffffffffffffffffffffffffffffffff021916908373ffffffffffffffffffffffffffffffffffffffff1602179055506007600085815260200190815260200160002060040160008154809291906107ca90613af4565b91905055506107ec303386600160405180602001604052806000815250611aa6565b600560009054906101000a900473ffffffffffffffffffffffffffffffffffffffff1673ffffffffffffffffffffffffffffffffffffffff166108fc839081150290604051600060405180830381858888f19350505050158015610854573d6000803e3d6000fd5b506007600085815260200190815260200160002060020160009054906101000a900473ffffffffffffffffffffffffffffffffffffffff1673ffffffffffffffffffffffffffffffffffffffff166108fc829081150290604051600060405180830381858888f193505050501580156108d1573d6000803e3d6000fd5b50600760008581526020019081526020016000206006016040516108f59190613b1d565b6040518091039020847fe47a985a41dad4ccdddbd39daa281811f730a09410eee2d3b0594f6f7efc52e1336007600089815260200190815260200160002060020160009054906101000a900473ffffffffffffffffffffffffffffffffffffffff16600760008a815260200190815260200160002060040154600760008b8152602001908152602001600020600501546040516109959493929190613ba2565b60405180910390a350505050565b6109ab611d41565b73ffffffffffffffffffffffffffffffffffffffff168573ffffffffffffffffffffffffffffffffffffffff1614806109f157506109f0856109eb611d41565b611840565b5b610a30576040517f08c379a0000000000000000000000000000000000000000000000000000000008152600401610a2790613c59565b60405180910390fd5b610a3d8585858585611d49565b5050505050565b60606000806000600190505b610a5a6006611a98565b8111610aa0576000600760008381526020019081526020016000206004015414610a8d578180610a8990613c79565b9250505b8080610a9890613c79565b915050610a50565b5060008167ffffffffffffffff811115610abd57610abc612cc2565b5b604051908082528060200260200182016040528015610af657816020015b610ae36129a8565b815260200190600190039081610adb5790505b5090506000600190505b610b0a6006611a98565b8111610cf2576000600760008381526020019081526020016000206004015414610cdf57600760008281526020019081526020016000206040518060e0016040529081600082015481526020016001820160009054906101000a900473ffffffffffffffffffffffffffffffffffffffff1673ffffffffffffffffffffffffffffffffffffffff1673ffffffffffffffffffffffffffffffffffffffff1681526020016002820160009054906101000a900473ffffffffffffffffffffffffffffffffffffffff1673ffffffffffffffffffffffffffffffffffffffff1673ffffffffffffffffffffffffffffffffffffffff168152602001600382015481526020016004820154815260200160058201548152602001600682018054610c3090613782565b80601f0160208091040260200160405190810160405280929190818152602001828054610c5c90613782565b8015610ca95780601f10610c7e57610100808354040283529160200191610ca9565b820191906000526020600020905b815481529060010190602001808311610c8c57829003601f168201915b505050505081525050828581518110610cc557610cc4613cc1565b5b60200260200101819052508380610cdb90613c79565b9450505b8080610cea90613c79565b915050610b00565b5080935050505090565b60076020528060005260406000206000915090508060000154908060010160009054906101000a900473ffffffffffffffffffffffffffffffffffffffff16908060020160009054906101000a900473ffffffffffffffffffffffffffffffffffffffff1690806003015490806004015490806005015490806006018054610d8390613782565b80601f0160208091040260200160405190810160405280929190818152602001828054610daf90613782565b8015610dfc5780601f10610dd157610100808354040283529160200191610dfc565b820191906000526020600020905b815481529060010190602001808311610ddf57829003601f168201915b5050505050905087565b60608151835114610e4c576040517f08c379a0000000000000000000000000000000000000000000000000000000008152600401610e4390613d62565b60405180910390fd5b6000835167ffffffffffffffff811115610e6957610e68612cc2565b5b604051908082528060200260200182016040528015610e975781602001602082028036833780820191505090505b50905060005b8451811015610f1457610ee4858281518110610ebc57610ebb613cc1565b5b6020026020010151858381518110610ed757610ed6613cc1565b5b6020026020010151610461565b828281518110610ef757610ef6613cc1565b5b60200260200101818152505080610f0d90613c79565b9050610e9d565b508091505092915050565b60606000806000600190505b610f356006611a98565b8111610fc6573373ffffffffffffffffffffffffffffffffffffffff166007600083815260200190815260200160002060020160009054906101000a900473ffffffffffffffffffffffffffffffffffffffff1673ffffffffffffffffffffffffffffffffffffffff1603610fb3578180610faf90613c79565b9250505b8080610fbe90613c79565b915050610f2b565b5060008167ffffffffffffffff811115610fe357610fe2612cc2565b5b60405190808252806020026020018201604052801561101c57816020015b6110096129a8565b8152602001906001900390816110015790505b5090506000600190505b6110306006611a98565b8111611263573373ffffffffffffffffffffffffffffffffffffffff166007600083815260200190815260200160002060020160009054906101000a900473ffffffffffffffffffffffffffffffffffffffff1673ffffffffffffffffffffffffffffffffffffffff160361125057600760008281526020019081526020016000206040518060e0016040529081600082015481526020016001820160009054906101000a900473ffffffffffffffffffffffffffffffffffffffff1673ffffffffffffffffffffffffffffffffffffffff1673ffffffffffffffffffffffffffffffffffffffff1681526020016002820160009054906101000a900473ffffffffffffffffffffffffffffffffffffffff1673ffffffffffffffffffffffffffffffffffffffff1673ffffffffffffffffffffffffffffffffffffffff1681526020016003820154815260200160048201548152602001600582015481526020016006820180546111a190613782565b80601f01602080910402602001604051908101604052809291908181526020018280546111cd90613782565b801561121a5780601f106111ef5761010080835404028352916020019161121a565b820191906000526020600020905b8154815290600101906020018083116111fd57829003601f168201915b50505050508152505082858151811061123657611235613cc1565b5b6020026020010181905250838061124c90613c79565b9450505b808061125b90613c79565b915050611026565b5080935050505090565b61127f611278611d41565b838361206a565b5050565b600063bc197c8160e01b905095945050505050565b600082116112db576040517f08c379a00000000000000000000000000000000000000000000000000000000081526004016112d290613df4565b60405180910390fd5b6112e560066121d6565b60006112f16006611a98565b905061130e338286604051806020016040528060008152506121ec565b611318818661239c565b6040518060e001604052808281526020013073ffffffffffffffffffffffffffffffffffffffff1681526020013373ffffffffffffffffffffffffffffffffffffffff16815260200185815260200185815260200184815260200183815250600760008381526020019081526020016000206000820151816000015560208201518160010160006101000a81548173ffffffffffffffffffffffffffffffffffffffff021916908373ffffffffffffffffffffffffffffffffffffffff16021790555060408201518160020160006101000a81548173ffffffffffffffffffffffffffffffffffffffff021916908373ffffffffffffffffffffffffffffffffffffffff160217905550606082015181600301556080820151816004015560a0820151816005015560c08201518160060190816114559190613fa1565b509050506114753330838760405180602001604052806000815250611aa6565b816040516114839190614073565b6040518091039020817f508c57be2dea720d89850866188dae49dd3416847b76a32e671291bbeb063abf30338889896040516114c395949392919061408a565b60405180910390a35050505050565b600060076000838152602001908152602001600020600501549050919050565b60606000806000600190505b6115086006611a98565b8111611599573373ffffffffffffffffffffffffffffffffffffffff166007600083815260200190815260200160002060010160009054906101000a900473ffffffffffffffffffffffffffffffffffffffff1673ffffffffffffffffffffffffffffffffffffffff160361158657818061158290613c79565b9250505b808061159190613c79565b9150506114fe565b5060008167ffffffffffffffff8111156115b6576115b5612cc2565b5b6040519080825280602002602001820160405280156115ef57816020015b6115dc6129a8565b8152602001906001900390816115d45790505b5090506000600190505b6116036006611a98565b8111611836573373ffffffffffffffffffffffffffffffffffffffff166007600083815260200190815260200160002060010160009054906101000a900473ffffffffffffffffffffffffffffffffffffffff1673ffffffffffffffffffffffffffffffffffffffff160361182357600760008281526020019081526020016000206040518060e0016040529081600082015481526020016001820160009054906101000a900473ffffffffffffffffffffffffffffffffffffffff1673ffffffffffffffffffffffffffffffffffffffff1673ffffffffffffffffffffffffffffffffffffffff1681526020016002820160009054906101000a900473ffffffffffffffffffffffffffffffffffffffff1673ffffffffffffffffffffffffffffffffffffffff1673ffffffffffffffffffffffffffffffffffffffff16815260200160038201548152602001600482015481526020016005820154815260200160068201805461177490613782565b80601f01602080910402602001604051908101604052809291908181526020018280546117a090613782565b80156117ed5780601f106117c2576101008083540402835291602001916117ed565b820191906000526020600020905b8154815290600101906020018083116117d057829003601f168201915b50505050508152505082858151811061180957611808613cc1565b5b6020026020010181905250838061181f90613c79565b9450505b808061182e90613c79565b9150506115f9565b5080935050505090565b6000600160008473ffffffffffffffffffffffffffffffffffffffff1673ffffffffffffffffffffffffffffffffffffffff16815260200190815260200160002060008373ffffffffffffffffffffffffffffffffffffffff1673ffffffffffffffffffffffffffffffffffffffff16815260200190815260200160002060009054906101000a900460ff16905092915050565b600063f23a6e6160e01b905095945050505050565b6118f1611d41565b73ffffffffffffffffffffffffffffffffffffffff168573ffffffffffffffffffffffffffffffffffffffff161480611937575061193685611931611d41565b611840565b5b611976576040517f08c379a000000000000000000000000000000000000000000000000000000000815260040161196d90613c59565b60405180910390fd5b6119838585858585611aa6565b5050505050565b60007f4e2312e0000000000000000000000000000000000000000000000000000000007bffffffffffffffffffffffffffffffffffffffffffffffffffffffff1916827bffffffffffffffffffffffffffffffffffffffffffffffffffffffff191614806119fd57506119fc82612401565b5b9050919050565b606060028054611a1390613782565b80601f0160208091040260200160405190810160405280929190818152602001828054611a3f90613782565b8015611a8c5780601f10611a6157610100808354040283529160200191611a8c565b820191906000526020600020905b815481529060010190602001808311611a6f57829003601f168201915b50505050509050919050565b600081600001549050919050565b600073ffffffffffffffffffffffffffffffffffffffff168473ffffffffffffffffffffffffffffffffffffffff1603611b15576040517f08c379a0000000000000000000000000000000000000000000000000000000008152600401611b0c9061414f565b60405180910390fd5b6000611b1f611d41565b90506000611b2c856124e3565b90506000611b39856124e3565b9050611b4983898985858961255d565b600080600088815260200190815260200160002060008a73ffffffffffffffffffffffffffffffffffffffff1673ffffffffffffffffffffffffffffffffffffffff16815260200190815260200160002054905085811015611be0576040517f08c379a0000000000000000000000000000000000000000000000000000000008152600401611bd7906141e1565b60405180910390fd5b85810360008089815260200190815260200160002060008b73ffffffffffffffffffffffffffffffffffffffff1673ffffffffffffffffffffffffffffffffffffffff168152602001908152602001600020819055508560008089815260200190815260200160002060008a73ffffffffffffffffffffffffffffffffffffffff1673ffffffffffffffffffffffffffffffffffffffff1681526020019081526020016000206000828254611c959190614201565b925050819055508773ffffffffffffffffffffffffffffffffffffffff168973ffffffffffffffffffffffffffffffffffffffff168573ffffffffffffffffffffffffffffffffffffffff167fc3d58168c5ae7397731d063d5bbf3d657854427343f4c083240f7aacaa2d0f628a8a604051611d12929190614235565b60405180910390a4611d28848a8a86868a612565565b611d36848a8a8a8a8a61256d565b505050505050505050565b600033905090565b8151835114611d8d576040517f08c379a0000000000000000000000000000000000000000000000000000000008152600401611d84906142d0565b60405180910390fd5b600073ffffffffffffffffffffffffffffffffffffffff168473ffffffffffffffffffffffffffffffffffffffff1603611dfc576040517f08c379a0000000000000000000000000000000000000000000000000000000008152600401611df39061414f565b60405180910390fd5b6000611e06611d41565b9050611e1681878787878761255d565b60005b8451811015611fc7576000858281518110611e3757611e36613cc1565b5b602002602001015190506000858381518110611e5657611e55613cc1565b5b60200260200101519050600080600084815260200190815260200160002060008b73ffffffffffffffffffffffffffffffffffffffff1673ffffffffffffffffffffffffffffffffffffffff16815260200190815260200160002054905081811015611ef7576040517f08c379a0000000000000000000000000000000000000000000000000000000008152600401611eee906141e1565b60405180910390fd5b81810360008085815260200190815260200160002060008c73ffffffffffffffffffffffffffffffffffffffff1673ffffffffffffffffffffffffffffffffffffffff168152602001908152602001600020819055508160008085815260200190815260200160002060008b73ffffffffffffffffffffffffffffffffffffffff1673ffffffffffffffffffffffffffffffffffffffff1681526020019081526020016000206000828254611fac9190614201565b9250508190555050505080611fc090613c79565b9050611e19565b508473ffffffffffffffffffffffffffffffffffffffff168673ffffffffffffffffffffffffffffffffffffffff168273ffffffffffffffffffffffffffffffffffffffff167f4a39dc06d4c0dbc64b70af90fd698a233a518aa5d07e595d983b8c0526c8f7fb878760405161203e9291906142f0565b60405180910390a4612054818787878787612565565b612062818787878787612744565b505050505050565b8173ffffffffffffffffffffffffffffffffffffffff168373ffffffffffffffffffffffffffffffffffffffff16036120d8576040517f08c379a00000000000000000000000000000000000000000000000000000000081526004016120cf90614399565b60405180910390fd5b80600160008573ffffffffffffffffffffffffffffffffffffffff1673ffffffffffffffffffffffffffffffffffffffff16815260200190815260200160002060008473ffffffffffffffffffffffffffffffffffffffff1673ffffffffffffffffffffffffffffffffffffffff16815260200190815260200160002060006101000a81548160ff0219169083151502179055508173ffffffffffffffffffffffffffffffffffffffff168373ffffffffffffffffffffffffffffffffffffffff167f17307eab39ab6107e8899845ad3d59bd9653f200f220920489ca2b5937696c31836040516121c99190612bc3565b60405180910390a3505050565b6001816000016000828254019250508190555050565b600073ffffffffffffffffffffffffffffffffffffffff168473ffffffffffffffffffffffffffffffffffffffff160361225b576040517f08c379a00000000000000000000000000000000000000000000000000000000081526004016122529061442b565b60405180910390fd5b6000612265611d41565b90506000612272856124e3565b9050600061227f856124e3565b90506122908360008985858961255d565b8460008088815260200190815260200160002060008973ffffffffffffffffffffffffffffffffffffffff1673ffffffffffffffffffffffffffffffffffffffff16815260200190815260200160002060008282546122ef9190614201565b925050819055508673ffffffffffffffffffffffffffffffffffffffff16600073ffffffffffffffffffffffffffffffffffffffff168473ffffffffffffffffffffffffffffffffffffffff167fc3d58168c5ae7397731d063d5bbf3d657854427343f4c083240f7aacaa2d0f62898960405161236d929190614235565b60405180910390a461238483600089858589612565565b6123938360008989898961256d565b50505050505050565b806004600084815260200190815260200160002090816123bc9190613fa1565b50817f6bb7ff708619ba0610cba295a58592e0451dee2622938c8755667688daf3529b6123e88461053b565b6040516123f59190612c9b565b60405180910390a25050565b60007fd9b67a26000000000000000000000000000000000000000000000000000000007bffffffffffffffffffffffffffffffffffffffffffffffffffffffff1916827bffffffffffffffffffffffffffffffffffffffffffffffffffffffff191614806124cc57507f0e89341c000000000000000000000000000000000000000000000000000000007bffffffffffffffffffffffffffffffffffffffffffffffffffffffff1916827bffffffffffffffffffffffffffffffffffffffffffffffffffffffff1916145b806124dc57506124db8261291b565b5b9050919050565b60606000600167ffffffffffffffff81111561250257612501612cc2565b5b6040519080825280602002602001820160405280156125305781602001602082028036833780820191505090505b509050828160008151811061254857612547613cc1565b5b60200260200101818152505080915050919050565b505050505050565b505050505050565b61258c8473ffffffffffffffffffffffffffffffffffffffff16612985565b1561273c578373ffffffffffffffffffffffffffffffffffffffff1663f23a6e6187878686866040518663ffffffff1660e01b81526004016125d29594939291906144a0565b6020604051808303816000875af192505050801561260e57506040513d601f19601f8201168201806040525081019061260b919061450f565b60015b6126b35761261a614549565b806308c379a003612676575061262e61456b565b806126395750612678565b806040517f08c379a000000000000000000000000000000000000000000000000000000000815260040161266d9190612c9b565b60405180910390fd5b505b6040517f08c379a00000000000000000000000000000000000000000000000000000000081526004016126aa9061466d565b60405180910390fd5b63f23a6e6160e01b7bffffffffffffffffffffffffffffffffffffffffffffffffffffffff1916817bffffffffffffffffffffffffffffffffffffffffffffffffffffffff19161461273a576040517f08c379a0000000000000000000000000000000000000000000000000000000008152600401612731906146ff565b60405180910390fd5b505b505050505050565b6127638473ffffffffffffffffffffffffffffffffffffffff16612985565b15612913578373ffffffffffffffffffffffffffffffffffffffff1663bc197c8187878686866040518663ffffffff1660e01b81526004016127a995949392919061471f565b6020604051808303816000875af19250505080156127e557506040513d601f19601f820116820180604052508101906127e2919061450f565b60015b61288a576127f1614549565b806308c379a00361284d575061280561456b565b80612810575061284f565b806040517f08c379a00000000000000000000000000000000000000000000000000000000081526004016128449190612c9b565b60405180910390fd5b505b6040517f08c379a00000000000000000000000000000000000000000000000000000000081526004016128819061466d565b60405180910390fd5b63bc197c8160e01b7bffffffffffffffffffffffffffffffffffffffffffffffffffffffff1916817bffffffffffffffffffffffffffffffffffffffffffffffffffffffff191614612911576040517f08c379a0000000000000000000000000000000000000000000000000000000008152600401612908906146ff565b60405180910390fd5b505b505050505050565b60007f01ffc9a7000000000000000000000000000000000000000000000000000000007bffffffffffffffffffffffffffffffffffffffffffffffffffffffff1916827bffffffffffffffffffffffffffffffffffffffffffffffffffffffff1916149050919050565b6000808273ffffffffffffffffffffffffffffffffffffffff163b119050919050565b6040518060e0016040528060008152602001600073ffffffffffffffffffffffffffffffffffffffff168152602001600073ffffffffffffffffffffffffffffffffffffffff168152602001600081526020016000815260200160008152602001606081525090565b6000604051905090565b600080fd5b600080fd5b600073ffffffffffffffffffffffffffffffffffffffff82169050919050565b6000612a5082612a25565b9050919050565b612a6081612a45565b8114612a6b57600080fd5b50565b600081359050612a7d81612a57565b92915050565b6000819050919050565b612a9681612a83565b8114612aa157600080fd5b50565b600081359050612ab381612a8d565b92915050565b60008060408385031215612ad057612acf612a1b565b5b6000612ade85828601612a6e565b9250506020612aef85828601612aa4565b9150509250929050565b612b0281612a83565b82525050565b6000602082019050612b1d6000830184612af9565b92915050565b60007fffffffff0000000000000000000000000000000000000000000000000000000082169050919050565b612b5881612b23565b8114612b6357600080fd5b50565b600081359050612b7581612b4f565b92915050565b600060208284031215612b9157612b90612a1b565b5b6000612b9f84828501612b66565b91505092915050565b60008115159050919050565b612bbd81612ba8565b82525050565b6000602082019050612bd86000830184612bb4565b92915050565b600060208284031215612bf457612bf3612a1b565b5b6000612c0284828501612aa4565b91505092915050565b600081519050919050565b600082825260208201905092915050565b60005b83811015612c45578082015181840152602081019050612c2a565b60008484015250505050565b6000601f19601f8301169050919050565b6000612c6d82612c0b565b612c778185612c16565b9350612c87818560208601612c27565b612c9081612c51565b840191505092915050565b60006020820190508181036000830152612cb58184612c62565b905092915050565b600080fd5b7f4e487b7100000000000000000000000000000000000000000000000000000000600052604160045260246000fd5b612cfa82612c51565b810181811067ffffffffffffffff82111715612d1957612d18612cc2565b5b80604052505050565b6000612d2c612a11565b9050612d388282612cf1565b919050565b600067ffffffffffffffff821115612d5857612d57612cc2565b5b602082029050602081019050919050565b600080fd5b6000612d81612d7c84612d3d565b612d22565b90508083825260208201905060208402830185811115612da457612da3612d69565b5b835b81811015612dcd5780612db98882612aa4565b845260208401935050602081019050612da6565b5050509392505050565b600082601f830112612dec57612deb612cbd565b5b8135612dfc848260208601612d6e565b91505092915050565b600080fd5b600067ffffffffffffffff821115612e2557612e24612cc2565b5b612e2e82612c51565b9050602081019050919050565b82818337600083830152505050565b6000612e5d612e5884612e0a565b612d22565b905082815260208101848484011115612e7957612e78612e05565b5b612e84848285612e3b565b509392505050565b600082601f830112612ea157612ea0612cbd565b5b8135612eb1848260208601612e4a565b91505092915050565b600080600080600060a08688031215612ed657612ed5612a1b565b5b6000612ee488828901612a6e565b9550506020612ef588828901612a6e565b945050604086013567ffffffffffffffff811115612f1657612f15612a20565b5b612f2288828901612dd7565b935050606086013567ffffffffffffffff811115612f4357612f42612a20565b5b612f4f88828901612dd7565b925050608086013567ffffffffffffffff811115612f7057612f6f612a20565b5b612f7c88828901612e8c565b9150509295509295909350565b600081519050919050565b600082825260208201905092915050565b6000819050602082019050919050565b612fbe81612a83565b82525050565b6000612fcf82612a25565b9050919050565b612fdf81612fc4565b82525050565b600082825260208201905092915050565b600061300182612c0b565b61300b8185612fe5565b935061301b818560208601612c27565b61302481612c51565b840191505092915050565b600060e0830160008301516130476000860182612fb5565b50602083015161305a6020860182612fd6565b50604083015161306d6040860182612fd6565b5060608301516130806060860182612fb5565b5060808301516130936080860182612fb5565b5060a08301516130a660a0860182612fb5565b5060c083015184820360c08601526130be8282612ff6565b9150508091505092915050565b60006130d7838361302f565b905092915050565b6000602082019050919050565b60006130f782612f89565b6131018185612f94565b93508360208202850161311385612fa5565b8060005b8581101561314f578484038952815161313085826130cb565b945061313b836130df565b925060208a01995050600181019050613117565b50829750879550505050505092915050565b6000602082019050818103600083015261317b81846130ec565b905092915050565b61318c81612fc4565b82525050565b600060e0820190506131a7600083018a612af9565b6131b46020830189613183565b6131c16040830188613183565b6131ce6060830187612af9565b6131db6080830186612af9565b6131e860a0830185612af9565b81810360c08301526131fa8184612c62565b905098975050505050505050565b600067ffffffffffffffff82111561322357613222612cc2565b5b602082029050602081019050919050565b600061324761324284613208565b612d22565b9050808382526020820190506020840283018581111561326a57613269612d69565b5b835b81811015613293578061327f8882612a6e565b84526020840193505060208101905061326c565b5050509392505050565b600082601f8301126132b2576132b1612cbd565b5b81356132c2848260208601613234565b91505092915050565b600080604083850312156132e2576132e1612a1b565b5b600083013567ffffffffffffffff811115613300576132ff612a20565b5b61330c8582860161329d565b925050602083013567ffffffffffffffff81111561332d5761332c612a20565b5b61333985828601612dd7565b9150509250929050565b600081519050919050565b600082825260208201905092915050565b6000819050602082019050919050565b600061337b8383612fb5565b60208301905092915050565b6000602082019050919050565b600061339f82613343565b6133a9818561334e565b93506133b48361335f565b8060005b838110156133e55781516133cc888261336f565b97506133d783613387565b9250506001810190506133b8565b5085935050505092915050565b6000602082019050818103600083015261340c8184613394565b905092915050565b61341d81612ba8565b811461342857600080fd5b50565b60008135905061343a81613414565b92915050565b6000806040838503121561345757613456612a1b565b5b600061346585828601612a6e565b92505060206134768582860161342b565b9150509250929050565b61348981612b23565b82525050565b60006020820190506134a46000830184613480565b92915050565b600067ffffffffffffffff8211156134c5576134c4612cc2565b5b6134ce82612c51565b9050602081019050919050565b60006134ee6134e9846134aa565b612d22565b90508281526020810184848401111561350a57613509612e05565b5b613515848285612e3b565b509392505050565b600082601f83011261353257613531612cbd565b5b81356135428482602086016134db565b91505092915050565b6000806000806080858703121561356557613564612a1b565b5b600085013567ffffffffffffffff81111561358357613582612a20565b5b61358f8782880161351d565b94505060206135a087828801612aa4565b93505060406135b187828801612aa4565b925050606085013567ffffffffffffffff8111156135d2576135d1612a20565b5b6135de8782880161351d565b91505092959194509250565b6000806040838503121561360157613600612a1b565b5b600061360f85828601612a6e565b925050602061362085828601612a6e565b9150509250929050565b600080600080600060a0868803121561364657613645612a1b565b5b600061365488828901612a6e565b955050602061366588828901612a6e565b945050604061367688828901612aa4565b935050606061368788828901612aa4565b925050608086013567ffffffffffffffff8111156136a8576136a7612a20565b5b6136b488828901612e8c565b9150509295509295909350565b7f455243313135353a2061646472657373207a65726f206973206e6f742061207660008201527f616c6964206f776e657200000000000000000000000000000000000000000000602082015250565b600061371d602a83612c16565b9150613728826136c1565b604082019050919050565b6000602082019050818103600083015261374c81613710565b9050919050565b7f4e487b7100000000000000000000000000000000000000000000000000000000600052602260045260246000fd5b6000600282049050600182168061379a57607f821691505b6020821081036137ad576137ac613753565b5b50919050565b600081905092915050565b60008190508160005260206000209050919050565b600081546137e081613782565b6137ea81866137b3565b94506001821660008114613805576001811461381a5761384d565b60ff198316865281151582028601935061384d565b613823856137be565b60005b8381101561384557815481890152600182019150602081019050613826565b838801955050505b50505092915050565b600061386182612c0b565b61386b81856137b3565b935061387b818560208601612c27565b80840191505092915050565b600061389382856137d3565b915061389f8284613856565b91508190509392505050565b7f4e487b7100000000000000000000000000000000000000000000000000000000600052601160045260246000fd5b60006138e582612a83565b91506138f083612a83565b92508282026138fe81612a83565b91508282048414831517613915576139146138ab565b5b5092915050565b7f4e487b7100000000000000000000000000000000000000000000000000000000600052601260045260246000fd5b600061395682612a83565b915061396183612a83565b9250826139715761397061391c565b5b828204905092915050565b600061398782612a83565b915061399283612a83565b92508282039050818111156139aa576139a96138ab565b5b92915050565b7f546f6b656e20446f65736e27742065786973742e000000000000000000000000600082015250565b60006139e6601483612c16565b91506139f1826139b0565b602082019050919050565b60006020820190508181036000830152613a15816139d9565b9050919050565b7f4e6f7420456e6f7567682042616c616e63652e00000000000000000000000000600082015250565b6000613a52601383612c16565b9150613a5d82613a1c565b602082019050919050565b60006020820190508181036000830152613a8181613a45565b9050919050565b7f4f7574206f662053746f636b2e00000000000000000000000000000000000000600082015250565b6000613abe600d83612c16565b9150613ac982613a88565b602082019050919050565b60006020820190508181036000830152613aed81613ab1565b9050919050565b6000613aff82612a83565b915060008203613b1257613b116138ab565b5b600182039050919050565b6000613b2982846137d3565b915081905092915050565b613b3d81612a45565b82525050565b6000819050919050565b6000613b68613b63613b5e84612a25565b613b43565b612a25565b9050919050565b6000613b7a82613b4d565b9050919050565b6000613b8c82613b6f565b9050919050565b613b9c81613b81565b82525050565b6000608082019050613bb76000830187613b34565b613bc46020830186613b93565b613bd16040830185612af9565b613bde6060830184612af9565b95945050505050565b7f455243313135353a2063616c6c6572206973206e6f7420746f6b656e206f776e60008201527f6572206f7220617070726f766564000000000000000000000000000000000000602082015250565b6000613c43602e83612c16565b9150613c4e82613be7565b604082019050919050565b60006020820190508181036000830152613c7281613c36565b9050919050565b6000613c8482612a83565b91507fffffffffffffffffffffffffffffffffffffffffffffffffffffffffffffffff8203613cb657613cb56138ab565b5b600182019050919050565b7f4e487b7100000000000000000000000000000000000000000000000000000000600052603260045260246000fd5b7f455243313135353a206163636f756e747320616e6420696473206c656e67746860008201527f206d69736d617463680000000000000000000000000000000000000000000000602082015250565b6000613d4c602983612c16565b9150613d5782613cf0565b604082019050919050565b60006020820190508181036000830152613d7b81613d3f565b9050919050565b7f5370656369667920736f6d6520616d6f756e7420666f722074686520746f6b6560008201527f6e2e000000000000000000000000000000000000000000000000000000000000602082015250565b6000613dde602283612c16565b9150613de982613d82565b604082019050919050565b60006020820190508181036000830152613e0d81613dd1565b9050919050565b60006020601f8301049050919050565b600082821b905092915050565b600060088302613e617fffffffffffffffffffffffffffffffffffffffffffffffffffffffffffffffff82613e24565b613e6b8683613e24565b95508019841693508086168417925050509392505050565b6000613e9e613e99613e9484612a83565b613b43565b612a83565b9050919050565b6000819050919050565b613eb883613e83565b613ecc613ec482613ea5565b848454613e31565b825550505050565b600090565b613ee1613ed4565b613eec818484613eaf565b505050565b5b81811015613f1057613f05600082613ed9565b600181019050613ef2565b5050565b601f821115613f5557613f26816137be565b613f2f84613e14565b81016020851015613f3e578190505b613f52613f4a85613e14565b830182613ef1565b50505b505050565b600082821c905092915050565b6000613f7860001984600802613f5a565b1980831691505092915050565b6000613f918383613f67565b9150826002028217905092915050565b613faa82612c0b565b67ffffffffffffffff811115613fc357613fc2612cc2565b5b613fcd8254613782565b613fd8828285613f14565b600060209050601f83116001811461400b5760008415613ff9578287015190505b6140038582613f85565b86555061406b565b601f198416614019866137be565b60005b828110156140415784890151825560018201915060208501945060208101905061401c565b8683101561405e578489015161405a601f891682613f67565b8355505b6001600288020188555050505b505050505050565b600061407f8284613856565b915081905092915050565b600060a08201905061409f6000830188613b34565b6140ac6020830187613b34565b6140b96040830186612af9565b6140c66060830185612af9565b6140d36080830184612af9565b9695505050505050565b7f455243313135353a207472616e7366657220746f20746865207a65726f20616460008201527f6472657373000000000000000000000000000000000000000000000000000000602082015250565b6000614139602583612c16565b9150614144826140dd565b604082019050919050565b600060208201905081810360008301526141688161412c565b9050919050565b7f455243313135353a20696e73756666696369656e742062616c616e636520666f60008201527f72207472616e7366657200000000000000000000000000000000000000000000602082015250565b60006141cb602a83612c16565b91506141d68261416f565b604082019050919050565b600060208201905081810360008301526141fa816141be565b9050919050565b600061420c82612a83565b915061421783612a83565b925082820190508082111561422f5761422e6138ab565b5b92915050565b600060408201905061424a6000830185612af9565b6142576020830184612af9565b9392505050565b7f455243313135353a2069647320616e6420616d6f756e7473206c656e6774682060008201527f6d69736d61746368000000000000000000000000000000000000000000000000602082015250565b60006142ba602883612c16565b91506142c58261425e565b604082019050919050565b600060208201905081810360008301526142e9816142ad565b9050919050565b6000604082019050818103600083015261430a8185613394565b9050818103602083015261431e8184613394565b90509392505050565b7f455243313135353a2073657474696e6720617070726f76616c2073746174757360008201527f20666f722073656c660000000000000000000000000000000000000000000000602082015250565b6000614383602983612c16565b915061438e82614327565b604082019050919050565b600060208201905081810360008301526143b281614376565b9050919050565b7f455243313135353a206d696e7420746f20746865207a65726f2061646472657360008201527f7300000000000000000000000000000000000000000000000000000000000000602082015250565b6000614415602183612c16565b9150614420826143b9565b604082019050919050565b6000602082019050818103600083015261444481614408565b9050919050565b600081519050919050565b600082825260208201905092915050565b60006144728261444b565b61447c8185614456565b935061448c818560208601612c27565b61449581612c51565b840191505092915050565b600060a0820190506144b56000830188613b34565b6144c26020830187613b34565b6144cf6040830186612af9565b6144dc6060830185612af9565b81810360808301526144ee8184614467565b90509695505050505050565b60008151905061450981612b4f565b92915050565b60006020828403121561452557614524612a1b565b5b6000614533848285016144fa565b91505092915050565b60008160e01c9050919050565b600060033d11156145685760046000803e61456560005161453c565b90505b90565b600060443d106145f85761457d612a11565b60043d036004823e80513d602482011167ffffffffffffffff821117156145a55750506145f8565b808201805167ffffffffffffffff8111156145c357505050506145f8565b80602083010160043d0385018111156145e05750505050506145f8565b6145ef82602001850186612cf1565b82955050505050505b90565b7f455243313135353a207472616e7366657220746f206e6f6e2d4552433131353560008201527f526563656976657220696d706c656d656e746572000000000000000000000000602082015250565b6000614657603483612c16565b9150614662826145fb565b604082019050919050565b600060208201905081810360008301526146868161464a565b9050919050565b7f455243313135353a204552433131353552656365697665722072656a6563746560008201527f6420746f6b656e73000000000000000000000000000000000000000000000000602082015250565b60006146e9602883612c16565b91506146f48261468d565b604082019050919050565b60006020820190508181036000830152614718816146dc565b9050919050565b600060a0820190506147346000830188613b34565b6147416020830187613b34565b81810360408301526147538186613394565b905081810360608301526147678185613394565b9050818103608083015261477b8184614467565b9050969550505050505056fea26469706673582212203950518de04a213a64b52a909f8ec3afcb966e937626ba69d4649004e3fdfdee64736f6c63430008110033",
  "linkReferences": {},
  "deployedLinkReferences": {}
}